{
  "contractName": "IFOM",
  "abi": [
    {
      "inputs": [
        {
          "internalType": "address[]",
          "name": "workers",
          "type": "address[]"
        }
      ],
      "stateMutability": "nonpayable",
      "type": "constructor"
    },
    {
      "anonymous": false,
      "inputs": [
        {
          "indexed": false,
          "internalType": "uint256",
          "name": "amount",
          "type": "uint256"
        }
      ],
      "name": "Log",
      "type": "event"
    },
    {
      "anonymous": false,
      "inputs": [
        {
          "indexed": true,
          "internalType": "address",
          "name": "previousOwner",
          "type": "address"
        },
        {
          "indexed": true,
          "internalType": "address",
          "name": "newOwner",
          "type": "address"
        }
      ],
      "name": "OwnershipTransferred",
      "type": "event"
    },
    {
      "inputs": [
        {
          "internalType": "address",
          "name": "_worker",
          "type": "address"
        }
      ],
      "name": "addWorker",
      "outputs": [],
      "stateMutability": "nonpayable",
      "type": "function"
    },
    {
      "inputs": [
        {
          "internalType": "address[]",
          "name": "_workers",
          "type": "address[]"
        }
      ],
      "name": "addWorkers",
      "outputs": [],
      "stateMutability": "nonpayable",
      "type": "function"
    },
    {
      "inputs": [
        {
          "internalType": "address",
          "name": "token",
          "type": "address"
        },
        {
          "internalType": "address",
          "name": "spender",
          "type": "address"
        },
        {
          "internalType": "uint256",
          "name": "amount",
          "type": "uint256"
        }
      ],
      "name": "approve",
      "outputs": [],
      "stateMutability": "nonpayable",
      "type": "function"
    },
    {
      "inputs": [
        {
          "internalType": "uint256",
          "name": "amount",
          "type": "uint256"
        }
      ],
      "name": "depositWETH",
      "outputs": [],
      "stateMutability": "payable",
      "type": "function"
    },
    {
      "inputs": [],
      "name": "isOwner",
      "outputs": [
        {
          "internalType": "bool",
          "name": "",
          "type": "bool"
        }
      ],
      "stateMutability": "view",
      "type": "function"
    },
    {
      "inputs": [
        {
          "internalType": "address",
          "name": "_worker",
          "type": "address"
        }
      ],
      "name": "isWorker",
      "outputs": [
        {
          "internalType": "bool",
          "name": "",
          "type": "bool"
        }
      ],
      "stateMutability": "view",
      "type": "function"
    },
    {
      "inputs": [],
      "name": "kill",
      "outputs": [],
      "stateMutability": "nonpayable",
      "type": "function"
    },
    {
      "inputs": [],
      "name": "owner",
      "outputs": [
        {
          "internalType": "address",
          "name": "",
          "type": "address"
        }
      ],
      "stateMutability": "view",
      "type": "function"
    },
    {
      "inputs": [
        {
          "internalType": "address",
          "name": "_worker",
          "type": "address"
        }
      ],
      "name": "removeWorker",
      "outputs": [],
      "stateMutability": "nonpayable",
      "type": "function"
    },
    {
      "inputs": [],
      "name": "renounceOwnership",
      "outputs": [],
      "stateMutability": "nonpayable",
      "type": "function"
    },
    {
      "inputs": [
        {
          "internalType": "bool",
          "name": "mode",
          "type": "bool"
        }
      ],
      "name": "resetWorkerModeEnable",
      "outputs": [],
      "stateMutability": "nonpayable",
      "type": "function"
    },
    {
      "inputs": [
        {
          "internalType": "address",
          "name": "token",
          "type": "address"
        },
        {
          "internalType": "uint256",
          "name": "amount",
          "type": "uint256"
        },
        {
          "internalType": "address",
          "name": "to",
          "type": "address"
        }
      ],
      "name": "transferERC20",
      "outputs": [],
      "stateMutability": "nonpayable",
      "type": "function"
    },
    {
      "inputs": [
        {
          "internalType": "uint256",
          "name": "amount",
          "type": "uint256"
        },
        {
          "internalType": "address",
          "name": "to",
          "type": "address"
        }
      ],
      "name": "transferETH",
      "outputs": [],
      "stateMutability": "nonpayable",
      "type": "function"
    },
    {
      "inputs": [
        {
          "internalType": "address",
          "name": "newOwner",
          "type": "address"
        }
      ],
      "name": "transferOwnership",
      "outputs": [],
      "stateMutability": "nonpayable",
      "type": "function"
    },
    {
      "inputs": [
        {
          "internalType": "uint256",
          "name": "amount",
          "type": "uint256"
        },
        {
          "internalType": "address",
          "name": "to",
          "type": "address"
        }
      ],
      "name": "withdraw",
      "outputs": [],
      "stateMutability": "nonpayable",
      "type": "function"
    },
    {
      "inputs": [
        {
          "internalType": "address[]",
          "name": "addrs",
          "type": "address[]"
        },
        {
          "internalType": "uint256",
          "name": "amount",
          "type": "uint256"
        }
      ],
      "name": "withdrawMulti",
      "outputs": [],
      "stateMutability": "nonpayable",
      "type": "function"
    },
    {
      "inputs": [
        {
          "internalType": "address",
          "name": "",
          "type": "address"
        }
      ],
      "name": "workers",
      "outputs": [
        {
          "internalType": "bool",
          "name": "",
          "type": "bool"
        }
      ],
      "stateMutability": "view",
      "type": "function"
    },
    {
      "stateMutability": "payable",
      "type": "receive"
    },
    {
      "inputs": [
        {
          "internalType": "address",
          "name": "token",
          "type": "address"
        }
      ],
      "name": "balance",
      "outputs": [
        {
          "internalType": "uint256",
          "name": "amount",
          "type": "uint256"
        }
      ],
      "stateMutability": "view",
      "type": "function"
    },
    {
      "inputs": [
        {
          "internalType": "address",
          "name": "token",
          "type": "address"
        },
        {
          "internalType": "address",
          "name": "from",
          "type": "address"
        },
        {
          "internalType": "address",
          "name": "to",
          "type": "address"
        },
        {
          "internalType": "uint256",
          "name": "amount",
          "type": "uint256"
        }
      ],
      "name": "transferERC20From",
      "outputs": [],
      "stateMutability": "nonpayable",
      "type": "function"
    },
    {
      "inputs": [
        {
          "internalType": "address",
          "name": "router",
          "type": "address"
        },
        {
          "internalType": "address[]",
          "name": "path",
          "type": "address[]"
        },
        {
          "internalType": "uint256",
          "name": "amountIn",
          "type": "uint256"
        },
        {
          "internalType": "uint256",
          "name": "amountOutMin",
          "type": "uint256"
        },
        {
          "internalType": "address",
          "name": "to",
          "type": "address"
        },
        {
          "internalType": "uint256",
          "name": "deadline",
          "type": "uint256"
        }
      ],
      "name": "xSwapExactTokensForTokens",
      "outputs": [
        {
          "internalType": "uint256[]",
          "name": "amounts",
          "type": "uint256[]"
        }
      ],
      "stateMutability": "nonpayable",
      "type": "function"
    },
    {
      "inputs": [
        {
          "internalType": "address",
          "name": "router",
          "type": "address"
        },
        {
          "internalType": "address",
          "name": "tokenA",
          "type": "address"
        },
        {
          "internalType": "address",
          "name": "tokenB",
          "type": "address"
        },
        {
          "internalType": "uint256",
          "name": "amountADesired",
          "type": "uint256"
        },
        {
          "internalType": "uint256",
          "name": "amountBDesired",
          "type": "uint256"
        },
        {
          "internalType": "uint256",
          "name": "amountAMin",
          "type": "uint256"
        },
        {
          "internalType": "uint256",
          "name": "amountBMin",
          "type": "uint256"
        }
      ],
      "name": "xAddLiquidity",
      "outputs": [
        {
          "internalType": "uint256",
          "name": "amountA",
          "type": "uint256"
        },
        {
          "internalType": "uint256",
          "name": "amountB",
          "type": "uint256"
        },
        {
          "internalType": "uint256",
          "name": "liquidity",
          "type": "uint256"
        }
      ],
      "stateMutability": "nonpayable",
      "type": "function"
    },
    {
      "inputs": [
        {
          "internalType": "address",
          "name": "router",
          "type": "address"
        },
        {
          "internalType": "address",
          "name": "tokenA",
          "type": "address"
        },
        {
          "internalType": "address",
          "name": "tokenB",
          "type": "address"
        },
        {
          "internalType": "uint256",
          "name": "liquidity",
          "type": "uint256"
        },
        {
          "internalType": "uint256",
          "name": "amountAMin",
          "type": "uint256"
        },
        {
          "internalType": "uint256",
          "name": "amountBMin",
          "type": "uint256"
        },
        {
          "internalType": "address",
          "name": "lp",
          "type": "address"
        }
      ],
      "name": "xRemoveLiquidity",
      "outputs": [
        {
          "internalType": "uint256",
          "name": "amountA",
          "type": "uint256"
        },
        {
          "internalType": "uint256",
          "name": "amountB",
          "type": "uint256"
        }
      ],
      "stateMutability": "nonpayable",
      "type": "function"
    },
    {
      "inputs": [
        {
          "internalType": "uint256",
          "name": "amount",
          "type": "uint256"
        }
      ],
      "name": "xLog",
      "outputs": [],
      "stateMutability": "nonpayable",
      "type": "function"
    },
    {
      "inputs": [
        {
          "internalType": "address",
          "name": "targetAddr",
          "type": "address"
        },
        {
          "internalType": "bytes",
          "name": "funcraw",
          "type": "bytes"
        }
      ],
      "name": "xProxy",
      "outputs": [],
      "stateMutability": "payable",
      "type": "function"
    },
    {
      "inputs": [
        {
          "components": [
            {
              "internalType": "address",
              "name": "target",
              "type": "address"
            },
            {
              "internalType": "bytes",
              "name": "funcraw",
              "type": "bytes"
            },
            {
              "internalType": "uint256",
              "name": "value",
              "type": "uint256"
            }
          ],
          "internalType": "struct IFOM.Step[]",
          "name": "steps",
          "type": "tuple[]"
        }
      ],
      "name": "xProxySteps",
      "outputs": [],
      "stateMutability": "payable",
      "type": "function"
    }
  ],
  "bytecode": "0x60806040526000805460ff60a01b1916600160a01b179055600280546001600160a01b03191673c02aaa39b223fe8d0a0e5c4f27ead9083c756cc21790553480156200004a57600080fd5b5060405162002c7338038062002c738339810160408190526200006d9162000226565b6000620000826001600160e01b03620000e916565b600080546001600160a01b0319166001600160a01b0383169081178255604051929350917f8be0079c531659141344cd1fd0a4f28419497f9722a3daafe3b4186f6b6457e0908290a350620000e281620000ed60201b6200071e1760201c565b506200036e565b3390565b620001006001600160e01b03620001d916565b620001285760405162461bcd60e51b81526004016200011f90620002db565b60405180910390fd5b60005b8151811015620001af5760008282815181106200014457fe5b6020026020010151905060006001600160a01b0316816001600160a01b03161415620001845760405162461bcd60e51b81526004016200011f9062000310565b6001600160a01b03166000908152600160208190526040909120805460ff191682179055016200012b565b50600054600160a01b900460ff16620001d6576000805460ff60a01b1916600160a01b1790555b50565b600080546001600160a01b0316620001f96001600160e01b03620000e916565b6001600160a01b031614905090565b80516001600160a01b03811681146200022057600080fd5b92915050565b6000602080838503121562000239578182fd5b82516001600160401b038082111562000250578384fd5b81850186601f82011262000262578485fd5b805192508183111562000273578485fd5b83830291506200028584830162000347565b8381528481019082860184840187018a1015620002a0578788fd5b8794505b85851015620002ce57620002b98a8262000208565b835260019490940193918601918601620002a4565b5098975050505050505050565b6020808252818101527f4f776e61626c653a2063616c6c6572206973206e6f7420746865206f776e6572604082015260600190565b60208082526017908201527f5f776f726b6572206d75737420626520646566696e6564000000000000000000604082015260600190565b6040518181016001600160401b03811182821017156200036657600080fd5b604052919050565b6128f5806200037e6000396000f3fe6080604052600436106101695760003560e01c8063715018a6116100d1578063c4f987a51161008a578063e3d670d711610064578063e3d670d7146103f5578063e8a77b4b14610422578063f2fde38b1461044f578063fca97ba81461046f57610170565b8063c4f987a5146103a2578063d819e497146103c2578063e1f21c67146103d557610170565b8063715018a6146102f6578063806ad57e1461030b5780638da5cb5b1461032b5780638f32d59b1461034d57806397e10a7914610362578063aa1566451461038257610170565b80633afef9b0116101235780633afef9b01461022a5780634048a2571461026157806341c0e1b51461028e57806366dd0f24146102a35780636b557a22146102b65780636e07c470146102d657610170565b8062f714ce146101755780630111efb71461019757806307940ee7146101b7578063090125bd146101d75780630ae75d1d146101ea57806317f77cec1461020a57610170565b3661017057005b600080fd5b34801561018157600080fd5b5061019561019036600461231f565b61049e565b005b3480156101a357600080fd5b506101956101b23660046120cc565b61071e565b3480156101c357600080fd5b506101956101d2366004611e55565b6107ec565b6101956101e536600461203d565b61085e565b3480156101f657600080fd5b506101956102053660046122b7565b610942565b34801561021657600080fd5b506101956102253660046122ef565b610984565b34801561023657600080fd5b5061024a610245366004611ea5565b6109be565b6040516102589291906127c1565b60405180910390f35b34801561026d57600080fd5b5061028161027c366004611e3a565b610be7565b604051610258919061250f565b34801561029a57600080fd5b50610195610bfc565b6101956102b13660046122ef565b610c23565b3480156102c257600080fd5b506101956102d1366004612107565b610c8f565b3480156102e257600080fd5b506101956102f136600461231f565b610dda565b34801561030257600080fd5b50610195610e9c565b34801561031757600080fd5b50610195610326366004611e3a565b610f0a565b34801561033757600080fd5b50610340610f9e565b60405161025891906123d7565b34801561035957600080fd5b50610281610fad565b34801561036e57600080fd5b5061019561037d36600461208b565b610fd1565b34801561038e57600080fd5b5061028161039d366004611e3a565b611094565b3480156103ae57600080fd5b506101956103bd366004611e3a565b6110b6565b6101956103d036600461214a565b611121565b3480156103e157600080fd5b506101956103f0366004611f83565b611245565b34801561040157600080fd5b50610415610410366004611e3a565b611307565b60405161025891906127b8565b34801561042e57600080fd5b5061044261043d366004611fc3565b6113a0565b60405161025891906124cb565b34801561045b57600080fd5b5061019561046a366004611e3a565b6114cf565b34801561047b57600080fd5b5061048f61048a366004611f19565b6114fc565b6040516102589392919061283f565b6104a6610fad565b6104cb5760405162461bcd60e51b81526004016104c2906126e0565b60405180910390fd5b6002546040516370a0823160e01b81526000916001600160a01b0316906370a08231906104fc9030906004016123d7565b60206040518083038186803b15801561051457600080fd5b505afa158015610528573d6000803e3d6000fd5b505050506040513d601f19601f8201168201806040525081019061054c9190612307565b905082811061063957600254604051632e1a7d4d60e01b81526001600160a01b0390911690632e1a7d4d906105859086906004016127b8565b600060405180830381600087803b15801561059f57600080fd5b505af11580156105b3573d6000803e3d6000fd5b505050506000826001600160a01b0316846040516105d0906123d4565b60006040518083038185875af1925050503d806000811461060d576040519150601f19603f3d011682016040523d82523d6000602084013e610612565b606091505b50509050806106335760405162461bcd60e51b81526004016104c290612715565b50610719565b600254604051632e1a7d4d60e01b81526001600160a01b0390911690632e1a7d4d906106699084906004016127b8565b600060405180830381600087803b15801561068357600080fd5b505af1158015610697573d6000803e3d6000fd5b505050506000826001600160a01b0316826040516106b4906123d4565b60006040518083038185875af1925050503d80600081146106f1576040519150601f19603f3d011682016040523d82523d6000602084013e6106f6565b606091505b50509050806107175760405162461bcd60e51b81526004016104c290612715565b505b505050565b610726610fad565b6107425760405162461bcd60e51b81526004016104c2906126e0565b60005b81518110156107c357600082828151811061075c57fe5b6020026020010151905060006001600160a01b0316816001600160a01b031614156107995760405162461bcd60e51b81526004016104c29061273d565b6001600160a01b03166000908152600160208190526040909120805460ff19168217905501610745565b50600054600160a01b900460ff166107e9576000805460ff60a01b1916600160a01b1790555b50565b600054600160a01b900460ff1615806108365750610808610f9e565b6001600160a01b0316336001600160a01b0316148061083657503360009081526001602052604090205460ff165b6108525760405162461bcd60e51b81526004016104c290612605565b61071784848484611978565b600054600160a01b900460ff1615806108a8575061087a610f9e565b6001600160a01b0316336001600160a01b031614806108a857503360009081526001602052604090205460ff165b6108c45760405162461bcd60e51b81526004016104c290612605565b6000826001600160a01b031634836040516108df919061239b565b60006040518083038185875af1925050503d806000811461091c576040519150601f19603f3d011682016040523d82523d6000602084013e610921565b606091505b50509050806107195760405162461bcd60e51b81526004016104c29061263c565b61094a610fad565b6109665760405162461bcd60e51b81526004016104c2906126e0565b60008054911515600160a01b0260ff60a01b19909216919091179055565b7f909c57d5c6ac08245cf2a6de3900e2b868513fa59099b92b27d8db823d92df9c816040516109b391906127b8565b60405180910390a150565b600080548190600160a01b900460ff161580610a0b57506109dd610f9e565b6001600160a01b0316336001600160a01b03161480610a0b57503360009081526001602052604090205460ff165b610a275760405162461bcd60e51b81526004016104c290612605565b6000808711610a3e57610a3984611307565b610a40565b865b604051636eb1769f60e11b815290915084906001600160a01b0382169063dd62ed3e90610a739030908f906004016123eb565b60206040518083038186803b158015610a8b57600080fd5b505afa158015610a9f573d6000803e3d6000fd5b505050506040513d601f19601f82011682018060405250810190610ac39190612307565b610b495760405163095ea7b360e01b81526001600160a01b0382169063095ea7b390610af5908e908c906004016124b2565b602060405180830381600087803b158015610b0f57600080fd5b505af1158015610b23573d6000803e3d6000fd5b505050506040513d601f19601f82011682018060405250810190610b4791906122d3565b505b604051635d5155ef60e11b81526001600160a01b038c169063baa2abde90610b84908d908d9087908d908d903090600a420190600401612429565b6040805180830381600087803b158015610b9d57600080fd5b505af1158015610bb1573d6000803e3d6000fd5b505050506040513d601f19601f82011682018060405250810190610bd5919061234b565b909c909b509950505050505050505050565b60016020526000908152604090205460ff1681565b610c04610fad565b610c205760405162461bcd60e51b81526004016104c2906126e0565b33ff5b600260009054906101000a90046001600160a01b03166001600160a01b031663d0e30db0826040518263ffffffff1660e01b81526004016000604051808303818588803b158015610c7357600080fd5b505af1158015610c87573d6000803e3d6000fd5b505050505050565b610c97610fad565b610cb35760405162461bcd60e51b81526004016104c2906126e0565b6000610cc9835183611a6190919063ffffffff16565b905080471015610d3657600254604051632e1a7d4d60e01b81526001600160a01b0390911690632e1a7d4d90610d039084906004016127b8565b600060405180830381600087803b158015610d1d57600080fd5b505af1158015610d31573d6000803e3d6000fd5b505050505b60005b8351811015610717576000848281518110610d5057fe5b60200260200101516001600160a01b031684604051610d6e906123d4565b60006040518083038185875af1925050503d8060008114610dab576040519150601f19603f3d011682016040523d82523d6000602084013e610db0565b606091505b5050905080610dd15760405162461bcd60e51b81526004016104c290612715565b50600101610d39565b610de2610fad565b610dfe5760405162461bcd60e51b81526004016104c2906126e0565b4715610e9857476000818411610e145783610e16565b815b90506000836001600160a01b031682604051610e31906123d4565b60006040518083038185875af1925050503d8060008114610e6e576040519150601f19603f3d011682016040523d82523d6000602084013e610e73565b606091505b5050905080610e945760405162461bcd60e51b81526004016104c290612715565b5050505b5050565b610ea4610fad565b610ec05760405162461bcd60e51b81526004016104c2906126e0565b600080546040516001600160a01b03909116907f8be0079c531659141344cd1fd0a4f28419497f9722a3daafe3b4186f6b6457e0908390a3600080546001600160a01b0319169055565b610f12610fad565b610f2e5760405162461bcd60e51b81526004016104c2906126e0565b6001600160a01b038116610f545760405162461bcd60e51b81526004016104c29061273d565b6001600160a01b03811660009081526001602081905260408220805460ff1916909117905554600160a01b900460ff166107e9576000805460ff60a01b1916600160a01b17905550565b6000546001600160a01b031690565b600080546001600160a01b0316610fc2611aa2565b6001600160a01b031614905090565b610fd9610fad565b610ff55760405162461bcd60e51b81526004016104c2906126e0565b6040516370a0823160e01b81526000906001600160a01b038516906370a08231906110249030906004016123d7565b60206040518083038186803b15801561103c57600080fd5b505afa158015611050573d6000803e3d6000fd5b505050506040513d601f19601f820116820180604052508101906110749190612307565b905060008184116110855783611087565b815b9050610e94858483611aa6565b6001600160a01b03811660009081526001602052604090205460ff165b919050565b6110be610fad565b6110da5760405162461bcd60e51b81526004016104c2906126e0565b6001600160a01b0381166111005760405162461bcd60e51b81526004016104c29061273d565b6001600160a01b03166000908152600160205260409020805460ff19169055565b600054600160a01b900460ff16158061116b575061113d610f9e565b6001600160a01b0316336001600160a01b0316148061116b57503360009081526001602052604090205460ff165b6111875760405162461bcd60e51b81526004016104c290612605565b60005b8151811015610e985761119b611d1a565b8282815181106111a757fe5b60200260200101519050600081600001516001600160a01b0316826040015183602001516040516111d8919061239b565b60006040518083038185875af1925050503d8060008114611215576040519150601f19603f3d011682016040523d82523d6000602084013e61121a565b606091505b505090508061123b5760405162461bcd60e51b81526004016104c29061263c565b505060010161118a565b61124d610fad565b6112695760405162461bcd60e51b81526004016104c2906126e0565b604051636eb1769f60e11b81526000906001600160a01b0385169063dd62ed3e9061129a90309087906004016123eb565b60206040518083038186803b1580156112b257600080fd5b505afa1580156112c6573d6000803e3d6000fd5b505050506040513d601f19601f820116820180604052508101906112ea9190612307565b11156112fc576112fc83836000611b8d565b610719838383611b8d565b600061131282611c74565b1561131e5750476110b1565b6040516370a0823160e01b81526001600160a01b038316906370a082319061134a9030906004016123d7565b60206040518083038186803b15801561136257600080fd5b505afa158015611376573d6000803e3d6000fd5b505050506040513d601f19601f8201168201806040525081019061139a9190612307565b92915050565b600054606090600160a01b900460ff1615806113ed57506113bf610f9e565b6001600160a01b0316336001600160a01b031614806113ed57503360009081526001602052604090205460ff165b6114095760405162461bcd60e51b81526004016104c290612605565b60008086116114345761142f8760008151811061142257fe5b6020026020010151611307565b611436565b855b6040516338ed173960e01b81529091506001600160a01b038916906338ed17399061146d90849089908c908a908a906004016127cf565b600060405180830381600087803b15801561148757600080fd5b505af115801561149b573d6000803e3d6000fd5b505050506040513d6000823e601f3d908101601f191682016040526114c39190810190612224565b98975050505050505050565b6114d7610fad565b6114f35760405162461bcd60e51b81526004016104c2906126e0565b6107e981611c99565b6000805481908190600160a01b900460ff16158061154b575061151d610f9e565b6001600160a01b0316336001600160a01b0316148061154b57503360009081526001602052604090205460ff165b6115675760405162461bcd60e51b81526004016104c290612605565b61157089611307565b87111561158f5760405162461bcd60e51b81526004016104c290612551565b61159888611307565b8611156115b75760405162461bcd60e51b81526004016104c290612668565b600089905060008990506000826001600160a01b031663dd62ed3e308f6040518363ffffffff1660e01b81526004016115f19291906123eb565b60206040518083038186803b15801561160957600080fd5b505afa15801561161d573d6000803e3d6000fd5b505050506040513d601f19601f820116820180604052508101906116419190612307565b11156116ca5760405163095ea7b360e01b81526001600160a01b0383169063095ea7b390611676908f906000906004016124b2565b602060405180830381600087803b15801561169057600080fd5b505af11580156116a4573d6000803e3d6000fd5b505050506040513d601f19601f820116820180604052508101906116c891906122d3565b505b60405163095ea7b360e01b81526001600160a01b0383169063095ea7b3906116f8908f908d906004016124b2565b602060405180830381600087803b15801561171257600080fd5b505af1158015611726573d6000803e3d6000fd5b505050506040513d601f19601f8201168201806040525081019061174a91906122d3565b506000816001600160a01b031663dd62ed3e308f6040518363ffffffff1660e01b815260040161177b9291906123eb565b60206040518083038186803b15801561179357600080fd5b505afa1580156117a7573d6000803e3d6000fd5b505050506040513d601f19601f820116820180604052508101906117cb9190612307565b11156118545760405163095ea7b360e01b81526001600160a01b0382169063095ea7b390611800908f906000906004016124b2565b602060405180830381600087803b15801561181a57600080fd5b505af115801561182e573d6000803e3d6000fd5b505050506040513d601f19601f8201168201806040525081019061185291906122d3565b505b60405163095ea7b360e01b81526001600160a01b0382169063095ea7b390611882908f908c906004016124b2565b602060405180830381600087803b15801561189c57600080fd5b505af11580156118b0573d6000803e3d6000fd5b505050506040513d601f19601f820116820180604052508101906118d491906122d3565b5060405162e8e33760e81b81526001600160a01b038d169063e8e3370090611911908e908e908e908e908e908e903090600a420190600401612469565b606060405180830381600087803b15801561192b57600080fd5b505af115801561193f573d6000803e3d6000fd5b505050506040513d601f19601f82011682018060405250810190611963919061236e565b919e909d50909b509950505050505050505050565b60006060856001600160a01b03166323b872dd8686866040516024016119a093929190612405565b6040516020818303038152906040529060e01b6020820180516001600160e01b0383818316178352505050506040516119d9919061239b565b6000604051808303816000865af19150503d8060008114611a16576040519150601f19603f3d011682016040523d82523d6000602084013e611a1b565b606091505b5091509150818015611a45575080511580611a45575080806020019051810190611a4591906122d3565b610c875760405162461bcd60e51b81526004016104c290612774565b600082611a705750600061139a565b82820282848281611a7d57fe5b0414611a9b5760405162461bcd60e51b81526004016104c29061269f565b9392505050565b3390565b60006060846001600160a01b031663a9059cbb8585604051602401611acc9291906124b2565b6040516020818303038152906040529060e01b6020820180516001600160e01b038381831617835250505050604051611b05919061239b565b6000604051808303816000865af19150503d8060008114611b42576040519150601f19603f3d011682016040523d82523d6000602084013e611b47565b606091505b5091509150818015611b71575080511580611b71575080806020019051810190611b7191906122d3565b610e945760405162461bcd60e51b81526004016104c29061251a565b60006060846001600160a01b031663095ea7b38585604051602401611bb39291906124b2565b6040516020818303038152906040529060e01b6020820180516001600160e01b038381831617835250505050604051611bec919061239b565b6000604051808303816000865af19150503d8060008114611c29576040519150601f19603f3d011682016040523d82523d6000602084013e611c2e565b606091505b5091509150818015611c58575080511580611c58575080806020019051810190611c5891906122d3565b610e945760405162461bcd60e51b81526004016104c2906125ce565b6001600160a01b03811673eeeeeeeeeeeeeeeeeeeeeeeeeeeeeeeeeeeeeeee14919050565b6001600160a01b038116611cbf5760405162461bcd60e51b81526004016104c290612588565b600080546040516001600160a01b03808516939216917f8be0079c531659141344cd1fd0a4f28419497f9722a3daafe3b4186f6b6457e091a3600080546001600160a01b0319166001600160a01b0392909216919091179055565b604051806060016040528060006001600160a01b0316815260200160608152602001600081525090565b80356001600160a01b038116811461139a57600080fd5b600082601f830112611d6b578081fd5b8135611d7e611d798261287c565b612855565b818152915060208083019084810181840286018201871015611d9f57600080fd5b60005b84811015611dc657611db48883611d44565b84529282019290820190600101611da2565b505050505092915050565b600082601f830112611de1578081fd5b813567ffffffffffffffff811115611df7578182fd5b611e0a601f8201601f1916602001612855565b9150808252836020828501011115611e2157600080fd5b8060208401602084013760009082016020015292915050565b600060208284031215611e4b578081fd5b611a9b8383611d44565b60008060008060808587031215611e6a578283fd5b8435611e758161289c565b93506020850135611e858161289c565b92506040850135611e958161289c565b9396929550929360600135925050565b600080600080600080600060e0888a031215611ebf578283fd5b611ec98989611d44565b9650611ed88960208a01611d44565b9550611ee78960408a01611d44565b9450606088013593506080880135925060a08801359150611f0b8960c08a01611d44565b905092959891949750929550565b600080600080600080600060e0888a031215611f33578283fd5b611f3d8989611d44565b9650611f4c8960208a01611d44565b9550611f5b8960408a01611d44565b969995985095966060810135965060808101359560a0820135955060c0909101359350915050565b600080600060608486031215611f97578283fd5b8335611fa28161289c565b92506020840135611fb28161289c565b929592945050506040919091013590565b60008060008060008060c08789031215611fdb578182fd5b611fe58888611d44565b9550602087013567ffffffffffffffff811115612000578283fd5b61200c89828a01611d5b565b955050604087013593506060870135925061202a8860808901611d44565b915060a087013590509295509295509295565b6000806040838503121561204f578182fd5b823561205a8161289c565b9150602083013567ffffffffffffffff811115612075578182fd5b61208185828601611dd1565b9150509250929050565b60008060006060848603121561209f578081fd5b83356120aa8161289c565b92506020840135915060408401356120c18161289c565b809150509250925092565b6000602082840312156120dd578081fd5b813567ffffffffffffffff8111156120f3578182fd5b6120ff84828501611d5b565b949350505050565b60008060408385031215612119578182fd5b823567ffffffffffffffff81111561212f578283fd5b61213b85828601611d5b565b95602094909401359450505050565b6000602080838503121561215c578182fd5b823567ffffffffffffffff80821115612173578384fd5b81850186601f820112612184578485fd5b80359250612194611d798461287c565b83815284810190828601875b868110156122155781358501606080601f19838f030112156121c0578a8bfd5b6121c981612855565b6121d58e8c8501611d44565b81526040830135898111156121e8578c8dfd5b6121f68f8d83870101611dd1565b828d0152509101356040820152845292870192908701906001016121a0565b50909998505050505050505050565b60006020808385031215612236578182fd5b825167ffffffffffffffff81111561224c578283fd5b80840185601f82011261225d578384fd5b8051915061226d611d798361287c565b8281528381019082850185850284018601891015612289578687fd5b8693505b848410156122ab57805183526001939093019291850191850161228d565b50979650505050505050565b6000602082840312156122c8578081fd5b8135611a9b816128b1565b6000602082840312156122e4578081fd5b8151611a9b816128b1565b600060208284031215612300578081fd5b5035919050565b600060208284031215612318578081fd5b5051919050565b60008060408385031215612331578182fd5b823591506123428460208501611d44565b90509250929050565b6000806040838503121561235d578182fd5b505080516020909101519092909150565b600080600060608486031215612382578081fd5b8351925060208401519150604084015190509250925092565b60008251815b818110156123bb57602081860181015185830152016123a1565b818111156123c95782828501525b509190910192915050565b90565b6001600160a01b0391909116815260200190565b6001600160a01b0392831681529116602082015260400190565b6001600160a01b039384168152919092166020820152604081019190915260600190565b6001600160a01b039788168152958716602087015260408601949094526060850192909252608084015290921660a082015260c081019190915260e00190565b6001600160a01b039889168152968816602088015260408701959095526060860193909352608085019190915260a084015290921660c082015260e08101919091526101000190565b6001600160a01b03929092168252602082015260400190565b6020808252825182820181905260009190848201906040850190845b81811015612503578351835292840192918401916001016124e7565b50909695505050505050565b901515815260200190565b6020808252601f908201527f5472616e7366657248656c7065723a205452414e534645525f4641494c454400604082015260600190565b6020808252601e908201527f756e69737761704164644c697175696469747920746f6b656e41206c6f770000604082015260600190565b60208082526026908201527f4f776e61626c653a206e6577206f776e657220697320746865207a65726f206160408201526564647265737360d01b606082015260800190565b6020808252601e908201527f5472616e7366657248656c7065723a20415050524f56455f4641494c45440000604082015260600190565b60208082526019908201527f6f6e6c7920776f726b65722063616e2063616c6c207468697300000000000000604082015260600190565b60208082526012908201527110d85b1b081d185c99d95d0811905253115160721b604082015260600190565b6020808252601e908201527f756e69737761704164644c697175696469747920746f6b656e42206c6f770000604082015260600190565b60208082526021908201527f536166654d6174683a206d756c7469706c69636174696f6e206f766572666c6f6040820152607760f81b606082015260800190565b6020808252818101527f4f776e61626c653a2063616c6c6572206973206e6f7420746865206f776e6572604082015260600190565b6020808252600e908201526d11549497d1551217d1905253115160921b604082015260600190565b60208082526017908201527f5f776f726b6572206d75737420626520646566696e6564000000000000000000604082015260600190565b60208082526024908201527f5472616e7366657248656c7065723a205452414e534645525f46524f4d5f46416040820152631253115160e21b606082015260800190565b90815260200190565b918252602082015260400190565b600060a082018783526020878185015260a0604085015281875180845260c0860191508289019350845b8181101561281e5784516001600160a01b0316835293830193918301916001016127f9565b50506001600160a01b03969096166060850152505050608001529392505050565b9283526020830191909152604082015260600190565b60405181810167ffffffffffffffff8111828210171561287457600080fd5b604052919050565b600067ffffffffffffffff821115612892578081fd5b5060209081020190565b6001600160a01b03811681146107e957600080fd5b80151581146107e957600080fdfea264697066735822122069b7e8afe32bd4db3448dde7923c828d37924b11f5df09ed6c502a31fa4095d864736f6c63430006060033",
  "immutableReferences": {},
  "source": "// pragma solidity ^0.5.0;\npragma solidity =0.6.6;\npragma experimental ABIEncoderV2;\n\nimport \"./libraries/SafeMath.sol\";\nimport \"./libraries/TransferHelper.sol\";\nimport \"./libraries/UniswapV2Library.sol\";\n\n\nimport \"./interfaces/IERC20.sol\";\nimport \"./interfaces/IUniswapV2Pair.sol\";\n\nimport \"./Base.sol\";\n\n\ninterface IUniswapV2Router {\n    function factory() external pure returns (address);\n    // function WETH() external pure returns (address);\n\n    function addLiquidity(\n        address tokenA,\n        address tokenB,\n        uint amountADesired,\n        uint amountBDesired,\n        uint amountAMin,\n        uint amountBMin,\n        address to,\n        uint deadline\n    ) external returns (uint amountA, uint amountB, uint liquidity);\n    function addLiquidityETH(\n        address token,\n        uint amountTokenDesired,\n        uint amountTokenMin,\n        uint amountETHMin,\n        address to,\n        uint deadline\n    ) external payable returns (uint amountToken, uint amountETH, uint liquidity);\n    function removeLiquidity(\n        address tokenA,\n        address tokenB,\n        uint liquidity,\n        uint amountAMin,\n        uint amountBMin,\n        address to,\n        uint deadline\n    ) external returns (uint amountA, uint amountB);\n\n    function removeLiquidityETH(\n        address token,\n        uint liquidity,\n        uint amountTokenMin,\n        uint amountETHMin,\n        address to,\n        uint deadline\n    ) external returns (uint amountToken, uint amountETH);\n\n    function swapExactTokensForTokens(\n        uint amountIn,\n        uint amountOutMin,\n        address[] calldata path,\n        address to,\n        uint deadline\n    ) external returns (uint[] memory amounts);\n\n    function quote(uint amountA, uint reserveA, uint reserveB) external pure returns (uint amountB);\n    function getAmountOut(uint amountIn, uint reserveIn, uint reserveOut) external pure returns (uint amountOut);\n    function getAmountIn(uint amountOut, uint reserveIn, uint reserveOut) external pure returns (uint amountIn);\n    function getAmountsOut(uint amountIn, address[] calldata path) external view returns (uint[] memory amounts);\n    function getAmountsIn(uint amountOut, address[] calldata path) external view returns (uint[] memory amounts);\n}\n\n// interface Target {\n//     function stake(uint256 amount) external;\n\n//     function withdraw(uint256 amount) external;\n\n//     function exit() external;\n\n//     function claimReward() external;\n\n//     function getReward() external;\n\n//     function claim() external;\n\n//     function deposit(uint256 amount) external;\n// }\n\ncontract IFOM is Base {\n    using SafeMath for uint256;\n\n    struct Step {\n        address target;\n        bytes   funcraw;\n        uint    value;\n    }\n\n    event Log(uint amount);\n\n    constructor(address[] memory workers) public {\n        super.addWorkers(workers);\n    }\n\n    function balance(address token) \n        public view\n        returns (uint amount)\n    {\n        if (isETH(token)) {\n            return address(this).balance;\n        }\n        return IERC20(token).balanceOf(address(this));\n    }\n\n    function transferERC20From(address token, address from,  address to, uint amount) \n        onlyWorkerOrOwner public \n    {\n        TransferHelper.safeTransferFrom(token, from, to, amount);\n    }\n\n    function xSwapExactTokensForTokens(\n        address router,\n        address[] memory path,\n        uint amountIn,\n        uint amountOutMin,\n        address to,\n        uint deadline\n    )\n        onlyWorkerOrOwner public \n        returns (uint[] memory amounts)\n    {     \n        uint amount = amountIn > 0 ? amountIn : balance(path[0]);\n        amounts = IUniswapV2Router(router).swapExactTokensForTokens(\n            amount,\n            amountOutMin,\n            path,\n            to,\n            deadline\n        );\n    }\n\n    function xAddLiquidity(\n        address router,\n        address tokenA,\n        address tokenB,\n        uint amountADesired,\n        uint amountBDesired,\n        uint amountAMin,\n        uint amountBMin\n    ) \n        onlyWorkerOrOwner public \n        returns (uint amountA, uint amountB, uint liquidity)\n    {\n        require(amountADesired <= balance(tokenA), \"uniswapAddLiquidity tokenA low\");\n        require(amountBDesired <= balance(tokenB), \"uniswapAddLiquidity tokenB low\");\n\n        IERC20 TokenA = IERC20(tokenA);\n        IERC20 TokenB = IERC20(tokenB);\n\n        if (TokenA.allowance(address(this), router) > 0) {\n            TokenA.approve(router, 0);\n        }\n        TokenA.approve(router, amountADesired);\n\n        if (TokenB.allowance(address(this), router) > 0) {\n            TokenB.approve(router, 0);\n        }\n        TokenB.approve(router, amountBDesired);\n\n        (amountA, amountB, liquidity) = IUniswapV2Router(router).addLiquidity(\n            tokenA,\n            tokenB,\n            amountADesired,\n            amountBDesired,\n            amountAMin,\n            amountBMin,\n            address(this),\n            block.timestamp + 10\n        );\n    }\n\n    function xRemoveLiquidity(\n        address router,\n        address tokenA,\n        address tokenB,\n        uint liquidity,\n        uint amountAMin,\n        uint amountBMin,\n        address lp\n    )\n        onlyWorkerOrOwner public \n        returns (uint amountA, uint amountB)\n    {\n        // require(liquidity <= balance(lp), \"uniswapAddLiquidity tokenA low\");\n\n        uint liquidityLP = liquidity > 0 ? liquidity : balance(lp);\n   \n        IERC20 TOKEN_LP_UNI = IERC20(lp);\n\n        if (TOKEN_LP_UNI.allowance(address(this), router) == 0) {\n            TOKEN_LP_UNI.approve(router, liquidity);\n        }\n\n       (amountA, amountB) = IUniswapV2Router(router).removeLiquidity(\n            tokenA,\n            tokenB,\n            liquidityLP,\n            amountAMin,\n            amountBMin,\n            address(this),\n            block.timestamp + 10\n        );\n    }\n\n    function xLog(\n        uint amount\n    )\n        public\n    {   \n        emit Log(amount);\n    }\n\n    function xProxy(\n        address targetAddr,\n        bytes   memory funcraw\n    ) \n        onlyWorkerOrOwner public payable\n    {\n        (bool success, ) = address(targetAddr).call{value: msg.value}(funcraw);\n        require(success, 'Call target FAILED');\n    }\n\n    function xProxySteps(\n        Step[] memory steps\n    ) \n        onlyWorkerOrOwner public payable\n    {\n        for (uint i = 0; i < steps.length; i++) {\n            Step memory step = steps[i];\n\n            (bool success, ) = address(step.target).call{value: step.value}(step.funcraw);\n            require(success, 'Call target FAILED');\n        }\n    }\n}",
  "sourcePath": "/Users/vanzhangxun/workspace/ethereum-toolbox/cs-deploy/projects/BeeV3/contracts/IFOM.sol",
  "compiler": {
    "name": "solc",
    "version": "0.6.6+commit.6c089d02.Emscripten.clang"
  },
  "schemaVersion": "3.2.3",
  "updatedAt": "2021-08-06T15:52:35.286Z",
  "devdoc": {
    "methods": {
      "isOwner()": {
        "details": "Returns true if the caller is the current owner."
      },
      "owner()": {
        "details": "Returns the address of the current owner."
      },
      "renounceOwnership()": {
        "details": "Leaves the contract without owner. It will not be possible to call `onlyOwner` functions anymore. Can only be called by the current owner.     * NOTE: Renouncing ownership will leave the contract without an owner, thereby removing any functionality that is only available to the owner."
      },
      "transferOwnership(address)": {
        "details": "Transfers ownership of the contract to a new account (`newOwner`). Can only be called by the current owner."
      }
    }
  },
  "userdoc": {
    "methods": {}
  }
}